:1000000043C067C066C465C064C019C462C061C033
:1000100060C05FC05EC05DC05CC05BC05AC05E01B6
:10002000011F01030301008A02010A01020201000B
:1000300064001E47040B0906007C0101060103034E
:100040000100F401060E0102020100C201170101C4
:10005000020201010000000037000000000038002B
:100060000000000036000202020202020202020246
:1000700001020408102020041008010200000400FE
:1000800000000000EF06700711241FBECFE5D2E08C
:10009000DEBFCDBF10E0A0E6B0E0E4E7F2E102C0D1
:1000A00005900D92A637B107D9F721E0A6E7B0E099
:1000B00001C01D92A235B207E1F710E0C3E4D0E021
:1000C00003C02197FE019FD7C234D107D1F761D475
:1000D000C5C896CF8F929F92AF92BF92FF920F9317
:1000E0001F93CF93DF938B019C0180913B019091F3
:1000F0003C01892B09F448C0C901AA27BB27F82E67
:10010000812E922EA32EBB24D82DC62F40914001C4
:10011000442381F0E42FF0E090E0BF014FD7F92EA7
:10012000882D90E0BF014AD7D92F802F90E0BF01E2
:1001300045D7C92FA0914601E0914101F0914201BC
:1001400080914301A81779F0032F11272227332725
:10015000902F442321F0842F90E0B8012FD7AE0FC9
:10016000BF2FB11D9C93A0914301AE0FBF2FB11DB6
:10017000FC92A0914401AE0FBF2FB11DDC93809182
:100180004501E80FF11DC083DF91CF911F910F91C1
:10019000FF90BF90AF909F908F900895A82F462F0B
:1001A00080913B0190913C01892B79F12091400194
:1001B000222359F030E08A2F90E0B901FFD6A92F11
:1001C000842F90E0B901FAD6492FE0914601809141
:1001D00041019091420120914301E21721F0E80F83
:1001E000F92FF11D1082E0914301E80FF92FF11D65
:1001F000A083E0914401E80FF92FF11D4083209185
:100200004501820F911DFC0110820895823089F012
:1002100018F4813051F00895833019F0843009F0DA
:1002200008958CB58F7D8CBD08958AB58F778ABD72
:1002300008958AB58F7DFBCFCF93DF93EAE7F0E097
:100240008491E0E7F0E0D491E6E6F0E0C491CC23BD
:1002500099F08111DBDFEC2FF0E0EE0FFF1FE05A89
:10026000FF4FA591B491EC91ED2381E090E009F46A
:1002700080E0DF91CF91089580E090E0FACF1F9366
:10028000CF93DF93282F30E0F901E658FF4F849198
:10029000F901E059FF4FD491F901EA59FF4FC49198
:1002A000CC23A1F0162F8111B1DFEC2FF0E0EE0F7F
:1002B000FF1FE65AFF4FA591B4918FB7F894EC91C8
:1002C000111108C0D095DE23DC938FBFDF91CF9151
:1002D0001F910895DE2BF8CFCF93DF9390E0FC01C0
:1002E000E059FF4F24918A599F4FFC018491882344
:1002F000D1F090E0880F991FFC01EC5AFF4FA591B7
:10030000B491FC01E65AFF4FC591D49161110EC022
:100310009FB7F8948C91E22FE0958E238C932881DF
:10032000E223E8839FBFDF91CF9108958FB7F894C0
:10033000EC91E22BEC938FBFF6CF3FB7F89480910E
:100340000D0190910E01A0910F01B091100122B703
:1003500008B601FE05C02F3F19F00196A11DB11D81
:100360003FBFBA2FA92F982F8827BC01CD01620F5C
:10037000711D811D911D42E0660F771F881F991F17
:100380004A95D1F708950F931F93CF93DF9300D031
:1003900000D000D01F92CDB7DEB78091410190917F
:1003A0004201892B09F460C0C8DF00914701109118
:1003B00048012091490130914A01601B710B820B69
:1003C000930B6C3271408105910570F3F894809124
:1003D0003D0190913E019A838983E0914101F09122
:1003E0004201DF01119680818F83E0914B01F091F2
:1003F0004C01908180914D01982B9E839081809536
:1004000089238D838D818C8388E08B835E816D81D0
:100410004F813B812C8189819A81508347FD252F13
:100420003A952083262F39F0441F00C000006083D6
:10043000000000C0F2CF38E04D91608300000197CA
:1004400061F7F0934C01E0934B014F833B832C8386
:100450009A838983789471DF609347017093480190
:100460008093490190934A0127960FB6F894DEBF16
:100470000FBECDBFDF91CF911F910F9108958F9245
:100480009F92AF92BF92CF92DF92EF92FF924B0179
:100490005C0153DF6B017C0150DF6C197D098E0913
:1004A0009F09683E734081059105B0F321E0821AEF
:1004B0009108A108B10888EEC80E83E0D81EE11C9F
:1004C000F11C81149104A104B10431F7FF90EF9065
:1004D000DF90CF90BF90AF909F908F9008952FB7EF
:1004E000F8946091090170910A0180910B0190913B
:1004F0000C012FBF08950895CF93DF93EC01BC0149
:1005000090E080E02FEF30E040E050E000D52CE3B9
:1005100030E040E050E030D5422FCD33D10580F1BE
:10052000CE01CD97CC9780F4409530E02FEF622F2D
:1005300070E090E080E0982F872F762F6627842B3D
:10054000632BDF91CF910895CE01895791098C33A8
:100550009105C8F0CC97CC9720F420953FEF40E070
:10056000E6CFCE01815F9109CC9780F0CD52D1408A
:10057000322F309520E0EC9720F030E020E0EFCFF4
:1005800030E04FEFD4CF322F2FEFE9CF3FEF20E015
:10059000CECF2F923F924F925F926F927F928F9227
:1005A0009F92AF92BF92CF92DF92EF92FF920F9302
:1005B0001F93CF93DF93CDB7DEB765970FB6F8944F
:1005C000DEBF0FBECDBFB9DE6B017C01809104019F
:1005D000909105011601281A390A2DEC221620E106
:1005E000320608F4D1C080917E0090917F00A10175
:1005F000481B590BCA0157FF03C09195819591097A
:10060000883C91050CF0BCC080917C0090917D00ED
:10061000019690937D0080937C00029709F0B0C012
:100620007EE1472E70E0572E66246394712C609112
:100630007A0070917B007B876A8749E050E0B201C5
:10064000CE0101965BD48B816C81681708F4682F0A
:1006500070E080917E0090917F00C1D49B016091F9
:10066000600070916100C901A9D464E670E0B7D45C
:10067000DB01898501E010E0882311F002E010E041
:100680008D8190E0B9019AD49D878C878E8190E00E
:10069000B90194D49F878E878F8190E0B9018ED461
:1006A000998B888B888590E0B90188D49B8B8A8B45
:1006B000F801EE0FFF1FE258FF4F812C912C5401DF
:1006C0008A859B8501979D8B8C8B4C895D8904174E
:1006D000150708F041C0880C991CAA1CBB1C80811E
:1006E0009181AC016C857D85461B570B57FF03C07C
:1006F0005195419551094A175B0770F44281538126
:100700006E857F85461B570B57FF03C0519541955A
:1007100051094A175B07E0F048895989841B950BFA
:1007200097FF03C09195819591098A179B07C8F49B
:10073000828193816A897B89861B970B97FF03C00F
:100740009195819591098A179B0758F4689480F8D0
:100750000E5F1F4F3496B9CF8A859B85089708F0A6
:1007600055C09FEF691A790A29E0420E511C37E003
:100770006316710409F05BCF10927D0010927C002B
:1007800010927B0010927A0080917A0090917B0009
:100790008334910540F010927B0010927A00109201
:1007A0007D0010927C0080917A0090917B009C01EA
:1007B0002F5F3F4F30937B0020937A00880F991F63
:1007C000FC01E258FF4F31822082C0920401D09296
:1007D0000501E0920601F092070165960FB6F894C4
:1007E000DEBF0FBECDBFDF91CF911F910F91FF9064
:1007F000EF90DF90CF90BF90AF909F908F907F90C1
:100800006F905F904F903F902F90089580921601C7
:1008100090921701A0921801B09219016C897D89FC
:100820007695679570931501609314013093790064
:100830002093780070927700609276009DCF1F928F
:100840000F920FB60F9211242F933F938F939F9384
:10085000AF93BF938091090190910A01A0910B0180
:10086000B0910C013091080123E0230F2D3758F58A
:100870000196A11DB11D2093080180930901909359
:100880000A01A0930B01B0930C0180910D0190918E
:100890000E01A0910F01B09110010196A11DB11D93
:1008A00080930D0190930E01A0930F01B09310015E
:1008B000BF91AF919F918F913F912F910F900FBE5C
:1008C0000F901F90189526E8230F0296A11DB11DC9
:1008D000D2CF1F920F920FB60F9211242F933F93F6
:1008E0004F935F936F937F938F939F93AF93BF9338
:1008F000CF93EF93FF9396B380911101C0911301B1
:10090000C923282F2095C223209112018223292F49
:1009100020958223C82B90931101C0FF05C0E09160
:100920006C00F0916D000995C1FF05C0E0916A006F
:10093000F0916B000995C2FF05C0E0916800F0914D
:1009400069000995C3FF05C0E0916600F09167005A
:100950000995C4FF05C0E0916400F0916500099518
:10096000C5FF05C0E0916200F09163000995FF9119
:10097000EF91CF91BF91AF919F918F917F916F91A7
:100980005F914F913F912F910F900FBE0F901F904D
:10099000189578948AB582608ABD8AB581608ABDCF
:1009A00083B7826083BF83B7816083BF89B782606A
:1009B00089BF80B7826080BF80B7816080BF329A74
:1009C000319A309A379A8CB580648CBD60E080E0B3
:1009D00083DC60E082E080DC61E083E07DDC8091AC
:1009E0003F0187FD06C061E077DC60E080913F0158
:1009F00046DC81E080933A01DBED4D2ED3E05D2EA5
:100A0000612C712C02E011E0C0E02C2EC0E03C2EE5
:100A1000C4E0C12CD12C760107B9369A3699FECFA5
:100A200084B195B1092E000CAA0BBB0BC80ED91EC0
:100A3000EA1EFB1E61E070E080E090E020DDC15026
:100A400059F7B2E0F694E794D794C794BA95D1F7E2
:100A5000E60180916E00882309F4ECC0D092390140
:100A6000C09238010D2C000CEE08FF08C701B6013A
:100A70006251710981099109A2E0660F771F881FF1
:100A8000991FAA95D1F7A30192015AD2C9010196E3
:100A900068E470E093D2EC012FDD60933401709331
:100AA0003501809336019093370114DB6CDCC4DB95
:100AB000892B31F414DD6838734181059105B8F351
:100AC000BBDB892B09F481C0B7DB0197A1F407DDFB
:100AD000F6E09695879577956795FA95D1F76170C9
:100AE00077278827992720E430E440E450E00FD2AC
:100AF000F1DA49DCE9CFF3DC6B017C019DDB892B6A
:100B000051F4EDDC6C197D098E099F096A3071057D
:100B10008105910598F311DC4B015C018DDB019798
:100B200051F4DDDC6C197D098E099F096A3071056D
:100B30008105910598F301DCE9EDCE2EDD24DA94F0
:100B4000ED2CFD2CC818D908EA08FB08C60ED71EE4
:100B5000E81EF91E87E1C816D104E104F10408F08B
:100B600065C08FE090E00197F1F761E080E0B4DBD1
:100B7000F894C09AC230D10540F0CE01880F991F79
:100B8000880F991F05970197F1F788B318BA88E67F
:100B900091E08C1B9D0B8230910538F0880F991FD6
:100BA000880F991F05970197F1F778948FE590E0EA
:100BB0000197F1F76FEF80E0F1DA10933301E3DB97
:100BC00064EF71E080E090E05ADC82E090E0909386
:100BD00025018093240110921601109217011092A2
:100BE000180110921901109215011092140189EC4C
:100BF00092E0909369008093680080911301846073
:100C0000809313018091120184608093120186B356
:100C100080931101AA9A8BB780628BBF10926E00ED
:100C20002114310409F4F4CEEBD9ECCE60E08FEF5F
:100C3000B5DAC5CF8091160190911701A0911801E6
:100C4000B0911901892B8A2B8B2B51F180911601C0
:100C500090911701A0911801B0911901843621EFEC
:100C600092072BE6A207B10509F056C08091330127
:100C7000882319F061E080E002DB109323012FDC70
:100C800060931F01709320018093210190932201B2
:100C9000109216011092170110921801109219016A
:100CA00080913801909139019C0125503109C2177A
:100CB000D30724F005968C179D07F4F5B6010D2C8B
:100CC000000C880B990B625171098109910932E07E
:100CD000660F771F881F991F3A95D1F7A3019201DC
:100CE0002FD1DA01C9010196A11DB11D68E470E0A0
:100CF00065D102DCEFD9D0923901C092380110934E
:100D00001E01EDDB60931A0170931B0180931C019F
:100D100090931D0138DB84CF8836914FAB46B105E7
:100D200009F0B6CF80913301882319F060E080E0AC
:100D3000A6DA10922301ACCF80911E018823A9F07E
:100D4000CEDBC0901A01D0901B01E0901C01F09006
:100D50001D016C197D098E099F09683B7B40810547
:100D60009105C0F210921E01D5CF809123018823F6
:100D700001F1B5DBC0901F01D0902001E09021016E
:100D8000F09022016C197D098E099F096938734121
:100D90008105910550F46091340170913501809185
:100DA00036019091370196D9B5CF60E070E0CB0164
:100DB000FACF95DB27E096958795779567952A95E5
:100DC000D1F76170772788279927209134013091D6
:100DD0003501409136015091370199D0E4CFCF933E
:100DE000DF93CFEFDFEFD0932701C09326018AE096
:100DF00090E0909329018093280149E050E06EE152
:100E000070E08AE291E07AD0D0932501C09324016A
:100E10008CE390E090936100809360001092160143
:100E200010921701109218011092190110923A01B4
:100E3000109240011092470110924801109249010E
:100E400010924A0181E08093460180934301109201
:100E5000440182E08093450183E090E090933E015D
:100E600080933D01D6D09093420180934101009739
:100E700071F123E0FC0111922A95E9F781E090E0FD
:100E800090933C0180933B0183E080933F018091EC
:100E90003A01882331F061E083E01EDA60E083E00C
:100EA000EED9E9E6F0E0E491F0E0EE0FFF1FE65A3C
:100EB000FF4F8591949190934C0180934B01E3E710
:100EC000F0E0E491E0934D01DF91CF91089510920D
:100ED0003E0110923D0110923C0110923B01D4CF93
:100EE0008091410190914201009709F02ED18091AB
:100EF0003F0187FD02C060E0EFC90895FB01DC01FE
:100F000002C005900D9241505040D8F70895EE2749
:100F1000FF27AA27BB2708C0A20FB31FE41FF51F96
:100F2000220F331F441F551F969587957795679518
:100F300098F37040A9F7009799F7BD01CF01089584
:100F4000052E97FB16F400940FD057FD05D014D052
:100F500007FC02D046F408C0509540953095219585
:100F60003F4F4F4F5F4F08959095809570956195D5
:100F70007F4F8F4F9F4F0895A1E21A2EAA1BBB1BD4
:100F8000FD010DC0AA1FBB1FEE1FFF1FA217B30755
:100F9000E407F50720F0A21BB30BE40BF50B661F6B
:100FA000771F881F991F1A9469F76095709580952F
:100FB00090959B01AC01BD01CF01089500245527F8
:100FC00004C0080E591F880F991F009729F07695C5
:100FD0006795B8F37105B9F7802D952F0895AA1B71
:100FE000BB1B51E107C0AA1FBB1FA617B70710F014
:100FF000A61BB70B881F991F5A95A9F78095909546
:10100000BC01CD010895EE0FFF1F0590F491E02D76
:1010100009940F931F93CF93DF938230910510F4BF
:1010200082E090E0E0915001F091510130E020E049
:10103000B0E0A0E0309799F42115310509F44AC0D9
:10104000281B390B24303105D8F58A819B81611525
:10105000710589F1FB0193838283FE0111C04081F8
:1010600051810281138148175907E0F04817590749
:1010700099F4109761F012960C93129713961C93A3
:101080003296CF01DF91CF911F910F910895009378
:10109000500110935101F4CF2115310551F0421741
:1010A000530738F0A901DB019A01BD01DF01F80106
:1010B000C1CFEF01F9CF9093510180935001CDCF73
:1010C000FE01E20FF31F819391932250310939837E
:1010D0002883D7CF20914E0130914F01232B41F42B
:1010E000209171003091720030934F0120934E0196
:1010F00020916F00309170002115310541F42DB71A
:101100003EB74091730050917400241B350BE09161
:101110004E01F0914F01E217F307A0F42E1B3F0B95
:101120002817390778F0AC014E5F5F4F2417350759
:1011300048F04E0F5F1F50934F0140934E01819333
:1011400091939FCFF0E0E0E09CCFCF93DF930097A7
:10115000E9F0FC01329713821282A0915001B09104
:101160005101ED0130E020E01097A1F420813181A0
:10117000820F931F20914E0130914F01281739079C
:1011800009F061C0F0934F01E0934E01DF91CF91E0
:101190000895EA01CE17DF07E8F54A815B819E01D9
:1011A00041155105B1F7E901FB83EA834991599152
:1011B000C40FD51FEC17FD0761F480819181029661
:1011C000840F951FE90199838883828193819B8392
:1011D0008A83F0E0E0E012968D919C91139700973E
:1011E000B9F52D913C911197CD010296820F931F75
:1011F00020914E0130914F012817390739F6309769
:1012000051F51092510110925001B0934F01A093EB
:101210004E01BCCFD383C28340815181840F951F7F
:10122000C817D90761F44E5F5F4F88819981480FD5
:10123000591F518340838A819B8193838283211527
:10124000310509F0B0CFF0935101E09350019ECFEA
:10125000FD01DC01C0CF13821282D7CF10E0C3E4BE
:10126000D0E003C0FE01CFDE2196C434D107D1F710
:04127000F894FFCF20
:101274003C007B027B027B027B027B027B0201003F
:0612840000520180000091
:00000001FF
